{
  "contractName": "Util",
  "abi": [
    {
      "inputs": [
        {
          "internalType": "string",
          "name": "_uniqueId",
          "type": "string"
        },
        {
          "internalType": "string",
          "name": "_reportHash",
          "type": "string"
        },
        {
          "internalType": "string[]",
          "name": "_medicens",
          "type": "string[]"
        },
        {
          "internalType": "address",
          "name": "_issuedBy",
          "type": "address"
        },
        {
          "internalType": "address",
          "name": "_issuedTo",
          "type": "address"
        },
        {
          "internalType": "string",
          "name": "_patientName",
          "type": "string"
        },
        {
          "internalType": "string",
          "name": "_doctorName",
          "type": "string"
        },
        {
          "internalType": "contract Doctor",
          "name": "d",
          "type": "address"
        },
        {
          "internalType": "contract Patient",
          "name": "p",
          "type": "address"
        }
      ],
      "name": "addRecord",
      "outputs": [],
      "stateMutability": "nonpayable",
      "type": "function"
    },
    {
      "inputs": [
        {
          "internalType": "string",
          "name": "_uniqueId",
          "type": "string"
        }
      ],
      "name": "getRecord",
      "outputs": [
        {
          "internalType": "string",
          "name": "",
          "type": "string"
        },
        {
          "internalType": "string",
          "name": "",
          "type": "string"
        },
        {
          "internalType": "string[]",
          "name": "",
          "type": "string[]"
        },
        {
          "internalType": "address",
          "name": "",
          "type": "address"
        },
        {
          "internalType": "address",
          "name": "",
          "type": "address"
        },
        {
          "internalType": "string",
          "name": "",
          "type": "string"
        },
        {
          "internalType": "string",
          "name": "",
          "type": "string"
        }
      ],
      "stateMutability": "view",
      "type": "function"
    }
  ],
  "bytecode": "0x608060405234801561001057600080fd5b5061249e806100206000396000f3fe608060405234801561001057600080fd5b50600436106100365760003560e01c806311dd88451461003b578063696cbf3014610071575b600080fd5b610055600480360381019061005091906107cb565b61008d565b60405161006897969594939291906109e0565b60405180910390f35b61008b60048036038101906100869190610c00565b610416565b005b6060806060600080606080600080896040516100a99190610d92565b908152602001604051809103902060009054906101000a900473ffffffffffffffffffffffffffffffffffffffff1690508073ffffffffffffffffffffffffffffffffffffffff1663ab63d7f26040518163ffffffff1660e01b8152600401600060405180830381865afa158015610125573d6000803e3d6000fd5b505050506040513d6000823e3d601f19601f8201168201806040525081019061014e9190610e19565b8173ffffffffffffffffffffffffffffffffffffffff166317a535756040518163ffffffff1660e01b8152600401600060405180830381865afa158015610199573d6000803e3d6000fd5b505050506040513d6000823e3d601f19601f820116820180604052508101906101c29190610e19565b8273ffffffffffffffffffffffffffffffffffffffff16633c4380596040518163ffffffff1660e01b8152600401600060405180830381865afa15801561020d573d6000803e3d6000fd5b505050506040513d6000823e3d601f19601f820116820180604052508101906102369190610f17565b8373ffffffffffffffffffffffffffffffffffffffff16633f8b0a1d6040518163ffffffff1660e01b8152600401602060405180830381865afa158015610281573d6000803e3d6000fd5b505050506040513d601f19601f820116820180604052508101906102a59190610f75565b8473ffffffffffffffffffffffffffffffffffffffff16632efa52fb6040518163ffffffff1660e01b8152600401602060405180830381865afa1580156102f0573d6000803e3d6000fd5b505050506040513d601f19601f820116820180604052508101906103149190610f75565b8573ffffffffffffffffffffffffffffffffffffffff1663870be7dd6040518163ffffffff1660e01b8152600401600060405180830381865afa15801561035f573d6000803e3d6000fd5b505050506040513d6000823e3d601f19601f820116820180604052508101906103889190610e19565b8673ffffffffffffffffffffffffffffffffffffffff16632796c8f06040518163ffffffff1660e01b8152600401600060405180830381865afa1580156103d3573d6000803e3d6000fd5b505050506040513d6000823e3d601f19601f820116820180604052508101906103fc9190610e19565b975097509750975097509750975050919395979092949650565b600060405161042490610664565b604051809103906000f080158015610440573d6000803e3d6000fd5b5090508073ffffffffffffffffffffffffffffffffffffffff16639babbcf58b8b8b8b8b8b8b6040518863ffffffff1660e01b815260040161048897969594939291906109e0565b600060405180830381600087803b1580156104a257600080fd5b505af11580156104b6573d6000803e3d6000fd5b505050508060008b6040516104cb9190610d92565b908152602001604051809103902060006101000a81548173ffffffffffffffffffffffffffffffffffffffff021916908373ffffffffffffffffffffffffffffffffffffffff1602179055508273ffffffffffffffffffffffffffffffffffffffff1663d81aa8c48b6040518263ffffffff1660e01b81526004016105509190610fa2565b600060405180830381600087803b15801561056a57600080fd5b505af115801561057e573d6000803e3d6000fd5b505050508273ffffffffffffffffffffffffffffffffffffffff1663eaa9f032876040518263ffffffff1660e01b81526004016105bb9190610fc4565b600060405180830381600087803b1580156105d557600080fd5b505af11580156105e9573d6000803e3d6000fd5b505050508173ffffffffffffffffffffffffffffffffffffffff1663d81aa8c48b6040518263ffffffff1660e01b81526004016106269190610fa2565b600060405180830381600087803b15801561064057600080fd5b505af1158015610654573d6000803e3d6000fd5b5050505050505050505050505050565b61148980610fe083390190565b6000604051905090565b600080fd5b600080fd5b600080fd5b600080fd5b6000601f19601f8301169050919050565b7f4e487b7100000000000000000000000000000000000000000000000000000000600052604160045260246000fd5b6106d88261068f565b810181811067ffffffffffffffff821117156106f7576106f66106a0565b5b80604052505050565b600061070a610671565b905061071682826106cf565b919050565b600067ffffffffffffffff821115610736576107356106a0565b5b61073f8261068f565b9050602081019050919050565b82818337600083830152505050565b600061076e6107698461071b565b610700565b90508281526020810184848401111561078a5761078961068a565b5b61079584828561074c565b509392505050565b600082601f8301126107b2576107b1610685565b5b81356107c284826020860161075b565b91505092915050565b6000602082840312156107e1576107e061067b565b5b600082013567ffffffffffffffff8111156107ff576107fe610680565b5b61080b8482850161079d565b91505092915050565b600081519050919050565b600082825260208201905092915050565b60005b8381101561084e578082015181840152602081019050610833565b60008484015250505050565b600061086582610814565b61086f818561081f565b935061087f818560208601610830565b6108888161068f565b840191505092915050565b600081519050919050565b600082825260208201905092915050565b6000819050602082019050919050565b600082825260208201905092915050565b60006108db82610814565b6108e581856108bf565b93506108f5818560208601610830565b6108fe8161068f565b840191505092915050565b600061091583836108d0565b905092915050565b6000602082019050919050565b600061093582610893565b61093f818561089e565b935083602082028501610951856108af565b8060005b8581101561098d578484038952815161096e8582610909565b94506109798361091d565b925060208a01995050600181019050610955565b50829750879550505050505092915050565b600073ffffffffffffffffffffffffffffffffffffffff82169050919050565b60006109ca8261099f565b9050919050565b6109da816109bf565b82525050565b600060e08201905081810360008301526109fa818a61085a565b90508181036020830152610a0e818961085a565b90508181036040830152610a22818861092a565b9050610a3160608301876109d1565b610a3e60808301866109d1565b81810360a0830152610a50818561085a565b905081810360c0830152610a64818461085a565b905098975050505050505050565b600067ffffffffffffffff821115610a8d57610a8c6106a0565b5b602082029050602081019050919050565b600080fd5b6000610ab6610ab184610a72565b610700565b90508083825260208201905060208402830185811115610ad957610ad8610a9e565b5b835b81811015610b2057803567ffffffffffffffff811115610afe57610afd610685565b5b808601610b0b898261079d565b85526020850194505050602081019050610adb565b5050509392505050565b600082601f830112610b3f57610b3e610685565b5b8135610b4f848260208601610aa3565b91505092915050565b610b61816109bf565b8114610b6c57600080fd5b50565b600081359050610b7e81610b58565b92915050565b6000610b8f826109bf565b9050919050565b610b9f81610b84565b8114610baa57600080fd5b50565b600081359050610bbc81610b96565b92915050565b6000610bcd826109bf565b9050919050565b610bdd81610bc2565b8114610be857600080fd5b50565b600081359050610bfa81610bd4565b92915050565b60008060008060008060008060006101208a8c031215610c2357610c2261067b565b5b60008a013567ffffffffffffffff811115610c4157610c40610680565b5b610c4d8c828d0161079d565b99505060208a013567ffffffffffffffff811115610c6e57610c6d610680565b5b610c7a8c828d0161079d565b98505060408a013567ffffffffffffffff811115610c9b57610c9a610680565b5b610ca78c828d01610b2a565b9750506060610cb88c828d01610b6f565b9650506080610cc98c828d01610b6f565b95505060a08a013567ffffffffffffffff811115610cea57610ce9610680565b5b610cf68c828d0161079d565b94505060c08a013567ffffffffffffffff811115610d1757610d16610680565b5b610d238c828d0161079d565b93505060e0610d348c828d01610bad565b925050610100610d468c828d01610beb565b9150509295985092959850929598565b600081905092915050565b6000610d6c82610814565b610d768185610d56565b9350610d86818560208601610830565b80840191505092915050565b6000610d9e8284610d61565b915081905092915050565b6000610dbc610db78461071b565b610700565b905082815260208101848484011115610dd857610dd761068a565b5b610de3848285610830565b509392505050565b600082601f830112610e0057610dff610685565b5b8151610e10848260208601610da9565b91505092915050565b600060208284031215610e2f57610e2e61067b565b5b600082015167ffffffffffffffff811115610e4d57610e4c610680565b5b610e5984828501610deb565b91505092915050565b6000610e75610e7084610a72565b610700565b90508083825260208201905060208402830185811115610e9857610e97610a9e565b5b835b81811015610edf57805167ffffffffffffffff811115610ebd57610ebc610685565b5b808601610eca8982610deb565b85526020850194505050602081019050610e9a565b5050509392505050565b600082601f830112610efe57610efd610685565b5b8151610f0e848260208601610e62565b91505092915050565b600060208284031215610f2d57610f2c61067b565b5b600082015167ffffffffffffffff811115610f4b57610f4a610680565b5b610f5784828501610ee9565b91505092915050565b600081519050610f6f81610b58565b92915050565b600060208284031215610f8b57610f8a61067b565b5b6000610f9984828501610f60565b91505092915050565b60006020820190508181036000830152610fbc818461085a565b905092915050565b6000602082019050610fd960008301846109d1565b9291505056fe608060405234801561001057600080fd5b50611469806100206000396000f3fe608060405234801561001057600080fd5b50600436106100f55760003560e01c80633c81ba4f11610097578063870be7dd11610066578063870be7dd1461025657806388d8c12b146102745780639babbcf514610292578063ab63d7f2146102ae576100f5565b80633c81ba4f146101de5780633f8b0a1d146101fc578063629c52a91461021a5780637670272314610238576100f5565b80631f4591dd116100d35780631f4591dd146101665780632796c8f0146101845780632efa52fb146101a25780633c438059146101c0576100f5565b80630b6e41e5146100fa578063108681841461011857806317a5357514610148575b600080fd5b6101026102cc565b60405161010f9190610bbd565b60405180910390f35b610132600480360381019061012d9190610c29565b61035a565b60405161013f9190610bbd565b60405180910390f35b610150610406565b60405161015d9190610bbd565b60405180910390f35b61016e610498565b60405161017b9190610c97565b60405180910390f35b61018c6104be565b6040516101999190610bbd565b60405180910390f35b6101aa610550565b6040516101b79190610c97565b60405180910390f35b6101c861057a565b6040516101d59190610dbe565b60405180910390f35b6101e6610653565b6040516101f39190610bbd565b60405180910390f35b6102046106e1565b6040516102119190610c97565b60405180910390f35b61022261070b565b60405161022f9190610bbd565b60405180910390f35b610240610799565b60405161024d9190610bbd565b60405180910390f35b61025e610827565b60405161026b9190610bbd565b60405180910390f35b61027c6108b9565b6040516102899190610c97565b60405180910390f35b6102ac60048036038101906102a79190611027565b6108df565b005b6102b66109c1565b6040516102c39190610bbd565b60405180910390f35b600580546102d990611184565b80601f016020809104026020016040519081016040528092919081815260200182805461030590611184565b80156103525780601f1061032757610100808354040283529160200191610352565b820191906000526020600020905b81548152906001019060200180831161033557829003601f168201915b505050505081565b6002818154811061036a57600080fd5b90600052602060002001600091509050805461038590611184565b80601f01602080910402602001604051908101604052809291908181526020018280546103b190611184565b80156103fe5780601f106103d3576101008083540402835291602001916103fe565b820191906000526020600020905b8154815290600101906020018083116103e157829003601f168201915b505050505081565b60606001805461041590611184565b80601f016020809104026020016040519081016040528092919081815260200182805461044190611184565b801561048e5780601f106104635761010080835404028352916020019161048e565b820191906000526020600020905b81548152906001019060200180831161047157829003601f168201915b5050505050905090565b600360009054906101000a900473ffffffffffffffffffffffffffffffffffffffff1681565b6060600680546104cd90611184565b80601f01602080910402602001604051908101604052809291908181526020018280546104f990611184565b80156105465780601f1061051b57610100808354040283529160200191610546565b820191906000526020600020905b81548152906001019060200180831161052957829003601f168201915b5050505050905090565b6000600460009054906101000a900473ffffffffffffffffffffffffffffffffffffffff16905090565b60606002805480602002602001604051908101604052809291908181526020016000905b8282101561064a5783829060005260206000200180546105bd90611184565b80601f01602080910402602001604051908101604052809291908181526020018280546105e990611184565b80156106365780601f1061060b57610100808354040283529160200191610636565b820191906000526020600020905b81548152906001019060200180831161061957829003601f168201915b50505050508152602001906001019061059e565b50505050905090565b6001805461066090611184565b80601f016020809104026020016040519081016040528092919081815260200182805461068c90611184565b80156106d95780601f106106ae576101008083540402835291602001916106d9565b820191906000526020600020905b8154815290600101906020018083116106bc57829003601f168201915b505050505081565b6000600360009054906101000a900473ffffffffffffffffffffffffffffffffffffffff16905090565b6000805461071890611184565b80601f016020809104026020016040519081016040528092919081815260200182805461074490611184565b80156107915780601f1061076657610100808354040283529160200191610791565b820191906000526020600020905b81548152906001019060200180831161077457829003601f168201915b505050505081565b600680546107a690611184565b80601f01602080910402602001604051908101604052809291908181526020018280546107d290611184565b801561081f5780601f106107f45761010080835404028352916020019161081f565b820191906000526020600020905b81548152906001019060200180831161080257829003601f168201915b505050505081565b60606005805461083690611184565b80601f016020809104026020016040519081016040528092919081815260200182805461086290611184565b80156108af5780601f10610884576101008083540402835291602001916108af565b820191906000526020600020905b81548152906001019060200180831161089257829003601f168201915b5050505050905090565b600460009054906101000a900473ffffffffffffffffffffffffffffffffffffffff1681565b86600090816108ee9190611361565b5081600590816108fe9190611361565b50856001908161090e9190611361565b508460029080519060200190610925929190610a53565b5083600360006101000a81548173ffffffffffffffffffffffffffffffffffffffff021916908373ffffffffffffffffffffffffffffffffffffffff16021790555082600460006101000a81548173ffffffffffffffffffffffffffffffffffffffff021916908373ffffffffffffffffffffffffffffffffffffffff16021790555080600690816109b79190611361565b5050505050505050565b6060600080546109d090611184565b80601f01602080910402602001604051908101604052809291908181526020018280546109fc90611184565b8015610a495780601f10610a1e57610100808354040283529160200191610a49565b820191906000526020600020905b815481529060010190602001808311610a2c57829003601f168201915b5050505050905090565b828054828255906000526020600020908101928215610a9b579160200282015b82811115610a9a578251829081610a8a9190611361565b5091602001919060010190610a73565b5b509050610aa89190610aac565b5090565b5b80821115610acc5760008181610ac39190610ad0565b50600101610aad565b5090565b508054610adc90611184565b6000825580601f10610aee5750610b0d565b601f016020900490600052602060002090810190610b0c9190610b10565b5b50565b5b80821115610b29576000816000905550600101610b11565b5090565b600081519050919050565b600082825260208201905092915050565b60005b83811015610b67578082015181840152602081019050610b4c565b60008484015250505050565b6000601f19601f8301169050919050565b6000610b8f82610b2d565b610b998185610b38565b9350610ba9818560208601610b49565b610bb281610b73565b840191505092915050565b60006020820190508181036000830152610bd78184610b84565b905092915050565b6000604051905090565b600080fd5b600080fd5b6000819050919050565b610c0681610bf3565b8114610c1157600080fd5b50565b600081359050610c2381610bfd565b92915050565b600060208284031215610c3f57610c3e610be9565b5b6000610c4d84828501610c14565b91505092915050565b600073ffffffffffffffffffffffffffffffffffffffff82169050919050565b6000610c8182610c56565b9050919050565b610c9181610c76565b82525050565b6000602082019050610cac6000830184610c88565b92915050565b600081519050919050565b600082825260208201905092915050565b6000819050602082019050919050565b600082825260208201905092915050565b6000610cfa82610b2d565b610d048185610cde565b9350610d14818560208601610b49565b610d1d81610b73565b840191505092915050565b6000610d348383610cef565b905092915050565b6000602082019050919050565b6000610d5482610cb2565b610d5e8185610cbd565b935083602082028501610d7085610cce565b8060005b85811015610dac5784840389528151610d8d8582610d28565b9450610d9883610d3c565b925060208a01995050600181019050610d74565b50829750879550505050505092915050565b60006020820190508181036000830152610dd88184610d49565b905092915050565b600080fd5b600080fd5b7f4e487b7100000000000000000000000000000000000000000000000000000000600052604160045260246000fd5b610e2282610b73565b810181811067ffffffffffffffff82111715610e4157610e40610dea565b5b80604052505050565b6000610e54610bdf565b9050610e608282610e19565b919050565b600067ffffffffffffffff821115610e8057610e7f610dea565b5b610e8982610b73565b9050602081019050919050565b82818337600083830152505050565b6000610eb8610eb384610e65565b610e4a565b905082815260208101848484011115610ed457610ed3610de5565b5b610edf848285610e96565b509392505050565b600082601f830112610efc57610efb610de0565b5b8135610f0c848260208601610ea5565b91505092915050565b600067ffffffffffffffff821115610f3057610f2f610dea565b5b602082029050602081019050919050565b600080fd5b6000610f59610f5484610f15565b610e4a565b90508083825260208201905060208402830185811115610f7c57610f7b610f41565b5b835b81811015610fc357803567ffffffffffffffff811115610fa157610fa0610de0565b5b808601610fae8982610ee7565b85526020850194505050602081019050610f7e565b5050509392505050565b600082601f830112610fe257610fe1610de0565b5b8135610ff2848260208601610f46565b91505092915050565b61100481610c76565b811461100f57600080fd5b50565b60008135905061102181610ffb565b92915050565b600080600080600080600060e0888a03121561104657611045610be9565b5b600088013567ffffffffffffffff81111561106457611063610bee565b5b6110708a828b01610ee7565b975050602088013567ffffffffffffffff81111561109157611090610bee565b5b61109d8a828b01610ee7565b965050604088013567ffffffffffffffff8111156110be576110bd610bee565b5b6110ca8a828b01610fcd565b95505060606110db8a828b01611012565b94505060806110ec8a828b01611012565b93505060a088013567ffffffffffffffff81111561110d5761110c610bee565b5b6111198a828b01610ee7565b92505060c088013567ffffffffffffffff81111561113a57611139610bee565b5b6111468a828b01610ee7565b91505092959891949750929550565b7f4e487b7100000000000000000000000000000000000000000000000000000000600052602260045260246000fd5b6000600282049050600182168061119c57607f821691505b6020821081036111af576111ae611155565b5b50919050565b60008190508160005260206000209050919050565b60006020601f8301049050919050565b600082821b905092915050565b6000600883026112177fffffffffffffffffffffffffffffffffffffffffffffffffffffffffffffffff826111da565b61122186836111da565b95508019841693508086168417925050509392505050565b6000819050919050565b600061125e61125961125484610bf3565b611239565b610bf3565b9050919050565b6000819050919050565b61127883611243565b61128c61128482611265565b8484546111e7565b825550505050565b600090565b6112a1611294565b6112ac81848461126f565b505050565b5b818110156112d0576112c5600082611299565b6001810190506112b2565b5050565b601f821115611315576112e6816111b5565b6112ef846111ca565b810160208510156112fe578190505b61131261130a856111ca565b8301826112b1565b50505b505050565b600082821c905092915050565b60006113386000198460080261131a565b1980831691505092915050565b60006113518383611327565b9150826002028217905092915050565b61136a82610b2d565b67ffffffffffffffff81111561138357611382610dea565b5b61138d8254611184565b6113988282856112d4565b600060209050601f8311600181146113cb57600084156113b9578287015190505b6113c38582611345565b86555061142b565b601f1984166113d9866111b5565b60005b82811015611401578489015182556001820191506020850194506020810190506113dc565b8683101561141e578489015161141a601f891682611327565b8355505b6001600288020188555050505b50505050505056fea2646970667358221220a03ee2cb650a83466d2abcd4e67982b4ec44be512e5d33cf27c5c67629558b7264736f6c63430008110033a26469706673582212205ddeb6042adf4385786fa1ef011f466c5217145a9e38adb13a2d38546d8e9ac264736f6c63430008110033",
  "immutableReferences": {},
  "source": "pragma solidity ^0.8.17;\nimport \"./Records.sol\";\nimport \"./Doctors.sol\";\nimport \"./Patients.sol\";\n\ncontract Util{\n    mapping(string=>Record) uniqueToRecord;\n\n    function addRecord(string memory _uniqueId,string memory _reportHash,string[] memory _medicens,address _issuedBy,address _issuedTo,string memory _patientName,string memory _doctorName,Doctor d,Patient p) public{\n            Record r=new Record();\n            r.addRecord(_uniqueId, _reportHash, _medicens, _issuedBy, _issuedTo, _patientName, _doctorName);\n            uniqueToRecord[_uniqueId]=r;\n            d.addRecord(_uniqueId);\n            d.removePatientRequested(_issuedTo);\n            p.addRecord(_uniqueId);\n            // doctorAddressToRecords[_doctorAddress].push(_uniqueId);\n            // patientAddressRecords[_patientAddress].push(_uniqueId);\n\n    }\n    function getRecord(string memory _uniqueId) public view returns(string memory,string memory,string[] memory,address,address,string memory,string memory){\n        Record r=uniqueToRecord[_uniqueId];\n        return (r.getUniqueId(),r.getReportHash(),r.getMedices(),r.getIssuedBy(),r.getIssuedTo(),r.getPatientName(),r.getDoctorName());\n    }\n}",
  "sourcePath": "B:\\final year project  major project\\blockchain\\zip\\contracts\\Util.sol",
  "compiler": {
    "name": "solc",
    "version": "0.8.17+commit.8df45f5f.Emscripten.clang"
  },
  "schemaVersion": "3.4.11",
  "updatedAt": "2024-02-29T14:29:05.786Z",
  "devdoc": {
    "kind": "dev",
    "methods": {},
    "version": 1
  },
  "userdoc": {
    "kind": "user",
    "methods": {},
    "version": 1
  }
}